:020000020000FC
:0E00000025C00895089508950895089508955F
:0E001C000EC10BC10AC108950895089583C452
:1000340037C1E2C0E1C08AC089C088C087C086C019
:1000440085C084C083C082C008E00EBF0FE50DBF29
:1000540000E0502E01E0602EE0E6F0E001E00083D5
:10006400319606E00083319600E0008331960DEA74
:100074000083319604E0008331960FE20083E2EAC4
:10008400F0E000E0008331960083E6EEF0E00AE061
:100094000083E6E0F1E000EC0083319609EF008391
:1000A400319604EA0083319600EB0083319609E926
:1000B4000083319602E90083319602E80083319689
:1000C40008EF0083319600E80083319600E900834D
:1000D400319608E80083319603E80083319606ECF4
:1000E4000083319601EA0083319606E80083319655
:1000F4000EE80083319602E00FBD05E10ABD09E078
:1001040008BD00E00EBD0CBD08E109BF00E00BB95D
:1001140000E00AB906E800BD06E000BD00E000BD4D
:1001240009E109B900EF01BB0FEF0ABB04BB262CA0
:10013400332404E60CBF05E003BF09B7026009BF1E
:10014400AA24CC24DD246BBA65BA9FD0A2EAB0E01D
:100154000C9100FD969A02C000FF96980F7FA0E8CC
:10016400B0E0AA0DB51D0C91069506950695069569
:1001740011D40BBB0C91000F000F000F000F06955C
:1001840006950695069506D405BB0000DFCF0081D1
:1001940051E060EAAFEFBFEF852CA0274427889495
:1001A400B795A79510F4A527B62743954830B9F716
:1001B400839431960081841481F7C0EAD0E0A88347
:1001C4002196B883089520FE16C05EBC08E00AB9E3
:1001D40002E0202EE0E6F0E0DADFC0EAD0E00881B9
:1001E40000832196319608810083439443943324F9
:1001F400789408E20AB908950F93EF93FF93431498
:1002040031F408E00AB95CBC05E00EBD07C0E0E6C5
:10021400F0E0E30DF51D00810CB933947894FF915F
:10022400EF910F9108950F935EBC262C2ED00F9161
:1002340008957894089521FCF6CF22FC01C0089516
:100244000F931F935F936F934F938F920F921F920D
:10025400AF93BF93CF93DF93EF93FF93789422FEF2
:1002640005C0262C332408E00AB937D0FF91EF915A
:10027400DF91CF91BF91AF911F900F908F904F91CD
:100284006F915F911F910F91089520FC01C006C0EA
:100294000CE0202E08E90AB900E0402E7894089575
:1002A4000F93EF93FF935CBC23FE05C0332404E05B
:1002B400202E05E00EBD032D003219F408E00AB922
:1002C40007C0E0E8F0E0E30DF51D0CB100833394C2
:1002D4007894FF91EF910F910895E1E8F0E00081A7
:1002E40007301AF406E0402E13C00F3049F4E6E854
:1002F400F0E0408002E0409E402C07E0400E08C041
:10030400003109F5E6E8F0E0408007E0400E00C067
:10031400E0E8F0E03CDFE0EAF0E00081E0E8F0E073
:10032400E40DF51D1081011759F4E1EAF0E00081B4
:10033400E1E8F0E0E40DE51D1081011709F404C0C3
:1003440001E1202E01C023C0E1E8F0E0008101308A
:1003540011F42FD02CC0023011F49ED028C00330E9
:1003640011F40DD124C0043011F458D120C005304B
:1003740011F4A3D11CC0063011F412D218C00F30EE
:1003840011F44CD214C0003111F477D210C0E1E85A
:10039400F0E01081E0E6F0E001E0008310683196BF
:1003A4001083319601E0008303E0402E00C00BCFA0
:1003B4000895E2E8F0E000810030B9F5319600815B
:1003C40000319AF531961081103079F5319610810B
:1003D400103069F1812E100F11313AF509C012E085
:1003E400C19FC02DD19FD02DC60DD51D439503C0EF
:1003F400462DC1E0D0E0481592F304C0CC0FDD1FB8
:10040400439501C0452D4017CAF3E2EAF0E010819C
:10041400C12331961081D123452D04C0D695C795AB
:10042400439500C04017D2F301C01BC001C026C0D1
:10043400082D093022F411E004E0402E06C012E039
:1004440005E0402EE5E6F0E0D083E0E6F0E001E0F0
:100454000083319601E00083319610833196C08386
:100464001AC0E0E6F0E001E00083319601E8008381
:10047400319602E0008303E0402E0DC0E0E6F0E098
:1004840001E00083319601E80083319603E00083A4
:1004940003E0402E00C00895E2E8F0E0008100305F
:1004A400B9F53196008100319AF5319610811030FA
:1004B40079F531961081103069F1812E100F1131C8
:1004C4003AF509C012E0C19FC02DD19FD02DC60DB1
:1004D400D51D439503C0462DC1E0D0E0481592F3E5
:1004E40004C0CC0FDD1F439501C0452D4017CAF34E
:1004F400E4EAF0E01081C12331961081D123452D27
:1005040004C0D695C795439500C04017D2F301C0E7
:100514001BC001C026C0082D083022F411E004E0FD
:10052400402E06C012E005E0402EE5E6F0E0D08360
:10053400E0E6F0E001E00083319602E000833196CA
:1005440010833196C0831AC0E0E6F0E001E0008336
:10055400319602E80083319602E0008303E0402EE6
:100564000DC0E0E6F0E001E00083319602E800838C
:10057400319603E0008303E0402E00C00895E2E8D2
:10058400F0E00081003079F53196008100315AF5B0
:1005940031961081103039F531961081103081F187
:1005A400812E100F1131FAF412E0189D802C109F47
:1005B400002DC6EAD0E0C00FD51DE3E6F0E0452DDE
:1005C400481532F443950881008321963196F8CF7B
:1005D400E0E6F0E001E00083319603E00083319629
:1005E4008082482C1AC0E0E6F0E001E000833196F6
:1005F40003E80083319602E0008303E0402E0DC03F
:10060400E0E6F0E001E00083319603E800833196F0
:1006140003E0008303E0402E00C00895E2E8F0E028
:100624000081003079F53196008100315AF5319618
:100634001081103039F531961081103081F1812EFE
:10064400100F1131FAF412E0189D802C109F002D28
:10065400C6EAD0E0C00FD51DE3E6F0E0452D48150D
:1006640032F443950881008321963196F8CFE0E671
:10067400F0E001E00083319603E00083319680824C
:10068400482C1AC0E0E6F0E001E00083319604E86B
:100694000083319602E0008303E0402E0DC0E0E6C3
:1006A400F0E001E00083319604E80083319603E032
:1006B400008303E0402E00C00895E2E8F0E00081EA
:1006C400003099F53196008100317AF53196108128
:1006D400103019F01F3F09F02AC0319610811030F4
:1006E40031F5452DC62DD52D401722F4CC0FDD1F35
:1006F4004395FACFE4E8F0E000810F3F51F4E2EAD9
:10070400F0E000810C2B0083319600810D2B0083D7
:100714000FC0C095D095E2EAF0E000810C2300837D
:10072400319600810D23008301C01FC001C02AC07F
:10073400E0E6F0E0C0E8D0E008810083219631963D
:100744000881008321963196088100832196319691
:100754000881008321963196088100832196319681
:100764000881008306E0402E1AC0E0E6F0E001E0D4
:100774000083319605E80083319602E0008303E0AC
:10078400402E0DC0E0E6F0E001E00083319605E87C
:100794000083319603E0008303E0402E00C00895F7
:1007A400E2E8F0E00081003061F53196008100312B
:1007B40042F53196C0813196D081E6EEF0E0E00F4B
:1007C400F51DC0833196D083E0E6F0E0C0E8D0E0C8
:1007D4000881008321963196088100832196319601
:1007E40008810083219631960881008321963196F1
:1007F40008810083219631960881008306E0402E0B
:100804000CC0E0E6F0E001E00083319606E80083E6
:10081400319602E0008303E0402E0895E2E8F0E020
:100824000081003081F431960081003162F4319608
:100834001081103041F431961081103089F0812EEE
:10084400100F113102F4E0E6F0E001E0008331968C
:100854000FE80083319602E0008303E0402E0CC0D1
:10086400E0E6F0E001E0008331960FE80083319682
:1008740003E0008303E0402E0895E2E8F0E0008105
:100884000030D1F5319600810031B2F531961081F6
:10089400103091F5319610811030D9F1100F1131CB
:1008A4005AF531961081462DC6EED0E0C00FD51D05
:1008B400319600810883219643951417CAF7E0E620
:1008C400F0E0C0E8D0E008810083219631960881E9
:1008D4000083219631960881008321963196088100
:1008E40000832196319608810083219631960881F0
:1008F400008306E0402E19C0E0E6F0E001E000834A
:10090400319600E90083319602E0008303E0402E33
:100914000CC0E0E6F0E001E00083319600E90083DA
:10092400319603E0008303E0402E08950F93EF9384
:10093400FF93F8940FB70F937894B394E6EEF0E036
:100944000081B016F2F0BB24002782990260829BDA
:100954000D7F0C1531F02AF4A3941A2D183009F4E4
:10096400AA24C02E002783990360839B0C7F0D1556
:1009740011F00AF4AA24D02E979902C0979A01C0C4
:100984009798F8940F910FBF7894FF91EF910F917E
:1009940078941895EF93FF93E6E0F1E0E00FF51DEE
:0809A4000081FF91EF9108951D
:00000001FF
